:0400000015EF06F002
:100600000001000A006400E80310274144433A0057
:10061000253464000000196E0E0E146EBDD0250E38
:100620001C1807E01950D96EDA6A1CC0DFFF192ABE
:10063000B3D01A6A1B6A166ACAD854EC06F022E3D1
:100640001A6A1B6A1AC001F01BC002F0046A0A0E83
:10065000036E41EC06F001C01AF002C01BF0D00E90
:10066000106E1168B4D8126E136A10501226115011
:10067000132212501A2613501B220D2AA8D854EC0C
:1006800006F0E0E291D801E18AD0640A03E00D0AA5
:1006900001E082D01450D96EDA6ADECF17F0DDCFD8
:1006A00018F0020E142618AE06D0030E1612176CA0
:1006B000181ED8B0182A010E1C6E1C50020DF350E3
:1006C000010F7ED8F550175C0900F550185804E367
:1006D0001C2A050E1C18F1E11A501B1008E016C068
:1006E00010F0030E101603E01A06D8A01B06800EA9
:1006F0001CBE7F0E106E1A501C5C1B50800A1058D6
:1007000007E21C501A5E000E1CBEFF0E1B5A02D0E0
:100710001A6A1B6A1A501B100CE01950D96EDA6A5B
:10072000200EDF6E192A1A06D8A01B061A501B10BD
:10073000F4E116C010F0030E101606E01950D96E41
:10074000DA6A2D0EDF6E192A1CC015F022D0155062
:10075000020DF350010F34D8F5CF03F00A00F5CFA6
:1007600004F017C001F018C002F096EC05F001C0CB
:1007700008F002C009F00B6A0A0E0A6EBBEC05F025
:100780000850300F1C6E1950D96EDA6A1CC0DFFF9A
:10079000192A15061528DBE107D801E040D71950C2
:1007A000D96EDA6ADF6A000C0D2A0D04106E10C0D3
:1007B000F6FF060EF76E0800F5CF1CF01C50120075
:1007C000106E10C0F6FF060EF76E090012000DC085
:1007D000F6FF060EF76E0800F5501200046E8A9AB6
:1007E0008A88026A04AE01D0022A010E37D8060EAA
:1007F000036ED8900232032EFCD73CD8050E036E50
:10080000D8900232032EFCD741D8023A0F0E0216BE
:1008100048D8E82EFED700F08A8A7BEC06F08A9A48
:1008200004C002F0D8900232D8900232D89002323E
:10083000010E14D8D8900232D89002321BD8D8902A
:10084000023224D82ED8E82EFED700F08A8A7BEC1C
:1008500006F08A9A7BEC06F084EF06F00216024658
:10086000024602468A500218F70B02188A6E04C02C
:1008700002F01200010E0216024602468A500218C9
:10088000FB0B02188A6E04C002F01200010E021661
:1008900002468A500218FD0B02188A6E04C002F04C
:1008A0001200010E02168A500218FE0B02188A6E00
:1008B000030C046E8A9A8A98026A04AE01D0022A56
:1008C000010E37D8060E036ED8900232032EFCD7E5
:1008D0003CD8050E036ED8900232032EFCD741D8C7
:1008E000023A0F0E021648D8E82EFED700F08A8A88
:1008F0007BEC06F08A9A04C002F0D8900232D890BD
:100900000232D8900232010E14D8D8900232D89018
:1009100002321BD8D890023224D82ED8E82EFED727
:1009200000F08A8A7BEC06F08A9A84EC06F07BEF72
:1009300006F002160246024602468A500218F70BDB
:1009400002188A6E04C002F01200010E021602465E
:1009500002468A500218FB0B02188A6E04C002F08D
:100960001200010E021602468A500218FD0B0218F0
:100970008A6E04C002F01200010E02168A5002189C
:10098000FE0B02188A6E030C9396939493929390A5
:10099000939A93988A968A948A928A908A9A8A9845
:1009A00084EC06F084EC06F084EC06F084EC06F0AF
:1009B00084EC06F084EC06F0010E056E2ED88A96C3
:1009C0008A948A828A808A8A8A987BEC06F025D863
:1009D00084EC06F0052A030E0564F0D717D88A9632
:1009E0008A948A828A908A8A8A987BEC06F00ED84A
:1009F00084EC06F0280E59EC04F0100E59EC04F0CB
:100A0000010E59EC04F00F0E59EF04F08A968A9407
:100A10008A828A908A9A8A9812008A968A948A820E
:100A20008A808A9A8A981200086E0DD005507F0F2E
:100A300008D00550BF0F05D00550930F02D00550C8
:100A4000D30F096E09D00850010AF0E0030AF1E063
:100A5000010AF2E0070AF3E0095059EC04F014D05F
:100A600006C0F6FF07C0F7FFF86A050EF76403D06B
:100A70000800F55005D0F6CFE9FFF7CFEAFFEF50B9
:100A8000EEEC03F0064A072A06C0F6FF07C0F7FFA0
:100A9000F86A050EF76403D00800F55005D0F6CFCC
:100AA000E9FFF7CFEAFFEF500009D8B41200D8D71A
:100AB000720ED36E0F0EC16E070EB46EC00E936E23
:100AC000180E946EC4EC04F0010E59EC04F00C0EF8
:100AD00059EC04F0A6EC06F0130E62EC06F0010EE1
:100AE000056E0B0E066E0650D8A4060E076E010E9C
:100AF00014EC05F0900EA2EC06F0900EF9EC05F067
:100B000004C031F005C032F0100E0D6E31C00EF091
:100B100032C00FF01D0E0BEC03F0050E056E1D0E1E
:100B2000066E076A010E14EC05F0E7D7056A066A3F
:100B3000035004101BE0010E076E04D0D89003365A
:100B40000436072A04AEFAD7D89005360636035085
:100B5000015C0450025805E30350015E0450025A40
:100B60000580D89004320332072EEED705C001F07D
:100B700006C002F012000A500B1017E0010E0C6EB6
:100B800004D0D8900A360B360C2A0BAEFAD70A508E
:100B9000085C0B50095804E30A50085E0B50095AD0
:100BA000D8900B320A320C2EF2D708C008F009C0D8
:100BB00009F01200026E6FEC06F0C6500F0B080A27
:100BC00004E0C6500F0B0B0AD8B4C586C7A0FED7E9
:100BD000C9CF03F06FEC06F0020405E1C59AC588A1
:100BE000C5A805D0FDD7C58AC588C5B8FED70350AE
:100BF0001200086E92EC06F008502CEC06F098EC0F
:100C000006F008282CEC06F0010EDAEC05F03B6E3D
:100C1000000EDAEC05F03C6E8CEC06F03B50066EF4
:100C20003C50046E06C005F012003C6A3B6A3C0E64
:100C3000F66E0D0EF76E000EF86E00EE33F010EE4D
:100C400008F00900F5CFEEFFE550E150FAE1000EA3
:100C5000F86E000158EF05F0026E6FEC06F002C06E
:100C6000C9FFC6BE0DD0C6500F0B080A04E0C6501F
:100C70000F0B0B0A05E1C7B0FED76FEC06F0C550AD
:100C8000120001500302F3CF05F0F4CF06F001503B
:100C90000402F350062602500302F350062605C054
:100CA00001F006C002F01200036E026A3A0E036001
:100CB00005D02F0E036402D0010E026E02C001F0B7
:100CC00001301200016E3F0EC716C66AC56AC6869D
:100CD000C78E94869488C68A01C0C8FF1200C7A434
:100CE00003D0016A012A01D0016AC5501F0B01100F
:100CF000D8B41200F4D7080EE82EFED700F0080E84
:100D0000E82EFED700F01200240E016EB60EE82E7B
:100D1000FED7012EFCD712006FEC06F0C584C5A4E7
:100D20001200FDD76FEC06F0C580C5A01200FDD7FC
:100D30006FEC06F0C582C5A21200FDD706090906B0
:100D400000000000096E0950F9EF05F0C69A120084
:020000040020DA
:08000000FFFFFFFFFFFFFFFF00
:020000040030CA
:0E000000FF08191EFF8180FF0FC00FE00F40A8
:00000001FF
